{
  "_format": "hh-sol-artifact-1",
  "contractName": "BlockPotatoGame",
  "sourceName": "contracts/BlockPotatoGame.sol",
  "abi": [
    {
      "inputs": [
        {
          "internalType": "uint256",
          "name": "_playCost",
          "type": "uint256"
        }
      ],
      "stateMutability": "nonpayable",
      "type": "constructor"
    },
    {
      "anonymous": false,
      "inputs": [
        {
          "indexed": true,
          "internalType": "address",
          "name": "previousOwner",
          "type": "address"
        },
        {
          "indexed": true,
          "internalType": "address",
          "name": "newOwner",
          "type": "address"
        }
      ],
      "name": "OwnershipTransferred",
      "type": "event"
    },
    {
      "inputs": [],
      "name": "MAX_WINNER_UMBRAL",
      "outputs": [
        {
          "internalType": "uint256",
          "name": "",
          "type": "uint256"
        }
      ],
      "stateMutability": "view",
      "type": "function"
    },
    {
      "inputs": [],
      "name": "blockPotatoContract",
      "outputs": [
        {
          "internalType": "contract BlockPotato",
          "name": "",
          "type": "address"
        }
      ],
      "stateMutability": "view",
      "type": "function"
    },
    {
      "inputs": [
        {
          "internalType": "uint256",
          "name": "tokenId",
          "type": "uint256"
        }
      ],
      "name": "burnNft",
      "outputs": [
        {
          "internalType": "uint256",
          "name": "price",
          "type": "uint256"
        }
      ],
      "stateMutability": "nonpayable",
      "type": "function"
    },
    {
      "inputs": [],
      "name": "currentNFTPrice",
      "outputs": [
        {
          "internalType": "uint256",
          "name": "price",
          "type": "uint256"
        }
      ],
      "stateMutability": "view",
      "type": "function"
    },
    {
      "inputs": [
        {
          "internalType": "address",
          "name": "_playerAddress",
          "type": "address"
        }
      ],
      "name": "getAddressNfts",
      "outputs": [
        {
          "internalType": "uint256",
          "name": "tokensCount",
          "type": "uint256"
        }
      ],
      "stateMutability": "view",
      "type": "function"
    },
    {
      "inputs": [],
      "name": "getTotalBalance",
      "outputs": [
        {
          "internalType": "uint256",
          "name": "balance",
          "type": "uint256"
        }
      ],
      "stateMutability": "view",
      "type": "function"
    },
    {
      "inputs": [],
      "name": "getTotalNFTs",
      "outputs": [
        {
          "internalType": "uint256",
          "name": "totalNfts",
          "type": "uint256"
        }
      ],
      "stateMutability": "view",
      "type": "function"
    },
    {
      "inputs": [],
      "name": "owner",
      "outputs": [
        {
          "internalType": "address",
          "name": "",
          "type": "address"
        }
      ],
      "stateMutability": "view",
      "type": "function"
    },
    {
      "inputs": [],
      "name": "play",
      "outputs": [],
      "stateMutability": "payable",
      "type": "function"
    },
    {
      "inputs": [],
      "name": "playCost",
      "outputs": [
        {
          "internalType": "uint256",
          "name": "",
          "type": "uint256"
        }
      ],
      "stateMutability": "view",
      "type": "function"
    },
    {
      "inputs": [],
      "name": "renounceOwnership",
      "outputs": [],
      "stateMutability": "nonpayable",
      "type": "function"
    },
    {
      "inputs": [
        {
          "internalType": "uint256",
          "name": "_newWinnerUmbral",
          "type": "uint256"
        }
      ],
      "name": "setWinnerUmbral",
      "outputs": [],
      "stateMutability": "nonpayable",
      "type": "function"
    },
    {
      "inputs": [
        {
          "internalType": "address",
          "name": "newOwner",
          "type": "address"
        }
      ],
      "name": "transferOwnership",
      "outputs": [],
      "stateMutability": "nonpayable",
      "type": "function"
    },
    {
      "inputs": [],
      "name": "winnerUmbral",
      "outputs": [
        {
          "internalType": "uint256",
          "name": "",
          "type": "uint256"
        }
      ],
      "stateMutability": "view",
      "type": "function"
    }
  ],
  "bytecode": "0x60806040526103e86001553480156200001757600080fd5b50604051620055283803806200552883398181016040528101906200003d9190620001fa565b6200005d62000051620000e060201b60201c565b620000e860201b60201c565b6040516200006b90620001ac565b604051809103906000f08015801562000088573d6000803e3d6000fd5b50600260006101000a81548173ffffffffffffffffffffffffffffffffffffffff021916908373ffffffffffffffffffffffffffffffffffffffff160217905550806003819055506101f4600481905550506200022c565b600033905090565b60008060009054906101000a900473ffffffffffffffffffffffffffffffffffffffff169050816000806101000a81548173ffffffffffffffffffffffffffffffffffffffff021916908373ffffffffffffffffffffffffffffffffffffffff1602179055508173ffffffffffffffffffffffffffffffffffffffff168173ffffffffffffffffffffffffffffffffffffffff167f8be0079c531659141344cd1fd0a4f28419497f9722a3daafe3b4186f6b6457e060405160405180910390a35050565b61433580620011f383390190565b600080fd5b6000819050919050565b620001d481620001bf565b8114620001e057600080fd5b50565b600081519050620001f481620001c9565b92915050565b600060208284031215620002135762000212620001ba565b5b60006200022384828501620001e3565b91505092915050565b610fb7806200023c6000396000f3fe6080604052600436106100dd5760003560e01c80638da5cb5b1161007f578063f2fde38b11610059578063f2fde38b1461027f578063f6735a50146102a8578063f9f23323146102d1578063fb22198b146102fc576100dd565b80638da5cb5b1461021f57806393e84cd91461024a578063b55ee47c14610254576100dd565b8063223f461a116100bb578063223f461a1461016357806330bdb351146101a05780633d5efefe146101cb578063715018a614610208576100dd565b80630d284f0a146100e257806312b583491461010d57806315d5704014610138575b600080fd5b3480156100ee57600080fd5b506100f7610327565b6040516101049190610a7c565b60405180910390f35b34801561011957600080fd5b5061012261032d565b60405161012f9190610a7c565b60405180910390f35b34801561014457600080fd5b5061014d610335565b60405161015a9190610b16565b60405180910390f35b34801561016f57600080fd5b5061018a60048036038101906101859190610b74565b61035b565b6040516101979190610a7c565b60405180910390f35b3480156101ac57600080fd5b506101b5610400565b6040516101c29190610a7c565b60405180910390f35b3480156101d757600080fd5b506101f260048036038101906101ed9190610bcd565b610498565b6040516101ff9190610a7c565b60405180910390f35b34801561021457600080fd5b5061021d610613565b005b34801561022b57600080fd5b50610234610627565b6040516102419190610c09565b60405180910390f35b610252610650565b005b34801561026057600080fd5b506102696106b4565b6040516102769190610a7c565b60405180910390f35b34801561028b57600080fd5b506102a660048036038101906102a19190610b74565b6106ba565b005b3480156102b457600080fd5b506102cf60048036038101906102ca9190610bcd565b61073d565b005b3480156102dd57600080fd5b506102e6610793565b6040516102f39190610a7c565b60405180910390f35b34801561030857600080fd5b50610311610855565b60405161031e9190610a7c565b60405180910390f35b60045481565b600047905090565b600260009054906101000a900473ffffffffffffffffffffffffffffffffffffffff1681565b6000600260009054906101000a900473ffffffffffffffffffffffffffffffffffffffff1673ffffffffffffffffffffffffffffffffffffffff166370a08231836040518263ffffffff1660e01b81526004016103b89190610c09565b602060405180830381865afa1580156103d5573d6000803e3d6000fd5b505050506040513d601f19601f820116820180604052508101906103f99190610c39565b9050919050565b6000600260009054906101000a900473ffffffffffffffffffffffffffffffffffffffff1673ffffffffffffffffffffffffffffffffffffffff166318160ddd6040518163ffffffff1660e01b8152600401602060405180830381865afa15801561046f573d6000803e3d6000fd5b505050506040513d601f19601f820116820180604052508101906104939190610c39565b905090565b6000600260009054906101000a900473ffffffffffffffffffffffffffffffffffffffff1673ffffffffffffffffffffffffffffffffffffffff166347fcf01833846040518363ffffffff1660e01b81526004016104f7929190610c66565b600060405180830381600087803b15801561051157600080fd5b505af1158015610525573d6000803e3d6000fd5b50505050600260009054906101000a900473ffffffffffffffffffffffffffffffffffffffff1673ffffffffffffffffffffffffffffffffffffffff166318160ddd6040518163ffffffff1660e01b8152600401602060405180830381865afa158015610596573d6000803e3d6000fd5b505050506040513d601f19601f820116820180604052508101906105ba9190610c39565b476105c59190610cbe565b90503373ffffffffffffffffffffffffffffffffffffffff166108fc829081150290604051600060405180830381858888f1935050505015801561060d573d6000803e3d6000fd5b50919050565b61061b61085b565b61062560006108d9565b565b60008060009054906101000a900473ffffffffffffffffffffffffffffffffffffffff16905090565b600354341015610695576040517f08c379a000000000000000000000000000000000000000000000000000000000815260040161068c90610d4c565b60405180910390fd5b600061069f61099d565b905080156106b1576106b0336109c3565b5b50565b60015481565b6106c261085b565b600073ffffffffffffffffffffffffffffffffffffffff168173ffffffffffffffffffffffffffffffffffffffff1603610731576040517f08c379a000000000000000000000000000000000000000000000000000000000815260040161072890610dde565b60405180910390fd5b61073a816108d9565b50565b61074561085b565b6001548110610789576040517f08c379a000000000000000000000000000000000000000000000000000000000815260040161078090610e4a565b60405180910390fd5b8060048190555050565b6000804790506000600260009054906101000a900473ffffffffffffffffffffffffffffffffffffffff1673ffffffffffffffffffffffffffffffffffffffff166318160ddd6040518163ffffffff1660e01b8152600401602060405180830381865afa158015610808573d6000803e3d6000fd5b505050506040513d601f19601f8201168201806040525081019061082c9190610c39565b90506000810361084157600092505050610852565b808261084d9190610cbe565b925050505b90565b60035481565b610863610a53565b73ffffffffffffffffffffffffffffffffffffffff16610881610627565b73ffffffffffffffffffffffffffffffffffffffff16146108d7576040517f08c379a00000000000000000000000000000000000000000000000000000000081526004016108ce90610eb6565b60405180910390fd5b565b60008060009054906101000a900473ffffffffffffffffffffffffffffffffffffffff169050816000806101000a81548173ffffffffffffffffffffffffffffffffffffffff021916908373ffffffffffffffffffffffffffffffffffffffff1602179055508173ffffffffffffffffffffffffffffffffffffffff168173ffffffffffffffffffffffffffffffffffffffff167f8be0079c531659141344cd1fd0a4f28419497f9722a3daafe3b4186f6b6457e060405160405180910390a35050565b6000806001546109ab610a5b565b6109b59190610ed6565b905060045481111591505090565b600260009054906101000a900473ffffffffffffffffffffffffffffffffffffffff1673ffffffffffffffffffffffffffffffffffffffff1663d204c45e826040518263ffffffff1660e01b8152600401610a1e9190610f53565b600060405180830381600087803b158015610a3857600080fd5b505af1158015610a4c573d6000803e3d6000fd5b5050505050565b600033905090565b600044905090565b6000819050919050565b610a7681610a63565b82525050565b6000602082019050610a916000830184610a6d565b92915050565b600073ffffffffffffffffffffffffffffffffffffffff82169050919050565b6000819050919050565b6000610adc610ad7610ad284610a97565b610ab7565b610a97565b9050919050565b6000610aee82610ac1565b9050919050565b6000610b0082610ae3565b9050919050565b610b1081610af5565b82525050565b6000602082019050610b2b6000830184610b07565b92915050565b600080fd5b6000610b4182610a97565b9050919050565b610b5181610b36565b8114610b5c57600080fd5b50565b600081359050610b6e81610b48565b92915050565b600060208284031215610b8a57610b89610b31565b5b6000610b9884828501610b5f565b91505092915050565b610baa81610a63565b8114610bb557600080fd5b50565b600081359050610bc781610ba1565b92915050565b600060208284031215610be357610be2610b31565b5b6000610bf184828501610bb8565b91505092915050565b610c0381610b36565b82525050565b6000602082019050610c1e6000830184610bfa565b92915050565b600081519050610c3381610ba1565b92915050565b600060208284031215610c4f57610c4e610b31565b5b6000610c5d84828501610c24565b91505092915050565b6000604082019050610c7b6000830185610bfa565b610c886020830184610a6d565b9392505050565b7f4e487b7100000000000000000000000000000000000000000000000000000000600052601260045260246000fd5b6000610cc982610a63565b9150610cd483610a63565b925082610ce457610ce3610c8f565b5b828204905092915050565b600082825260208201905092915050565b7f596f75206d75737420636f7665722074686520706c617920636f737400000000600082015250565b6000610d36601c83610cef565b9150610d4182610d00565b602082019050919050565b60006020820190508181036000830152610d6581610d29565b9050919050565b7f4f776e61626c653a206e6577206f776e657220697320746865207a65726f206160008201527f6464726573730000000000000000000000000000000000000000000000000000602082015250565b6000610dc8602683610cef565b9150610dd382610d6c565b604082019050919050565b60006020820190508181036000830152610df781610dbb565b9050919050565b7f496e76616c69642077696e6e657220756d6272616c2076616c75650000000000600082015250565b6000610e34601b83610cef565b9150610e3f82610dfe565b602082019050919050565b60006020820190508181036000830152610e6381610e27565b9050919050565b7f4f776e61626c653a2063616c6c6572206973206e6f7420746865206f776e6572600082015250565b6000610ea0602083610cef565b9150610eab82610e6a565b602082019050919050565b60006020820190508181036000830152610ecf81610e93565b9050919050565b6000610ee182610a63565b9150610eec83610a63565b925082610efc57610efb610c8f565b5b828206905092915050565b7f7465737400000000000000000000000000000000000000000000000000000000600082015250565b6000610f3d600483610cef565b9150610f4882610f07565b602082019050919050565b6000604082019050610f686000830184610bfa565b8181036020830152610f7981610f30565b90509291505056fea2646970667358221220fe0a4ff76d6cb790b2dbf09712ebbd482f27dc0465660f34451980e90c3d80b464736f6c6343000811003360806040523480156200001157600080fd5b506040518060400160405280600c81526020017f426c6f636b20506f7461746f00000000000000000000000000000000000000008152506040518060400160405280600681526020017f504f5441544f000000000000000000000000000000000000000000000000000081525081600090816200008f91906200042d565b508060019081620000a191906200042d565b5050506000600b60006101000a81548160ff021916908315150217905550620000df620000d3620000e560201b60201c565b620000ed60201b60201c565b62000514565b600033905090565b6000600b60019054906101000a900473ffffffffffffffffffffffffffffffffffffffff16905081600b60016101000a81548173ffffffffffffffffffffffffffffffffffffffff021916908373ffffffffffffffffffffffffffffffffffffffff1602179055508173ffffffffffffffffffffffffffffffffffffffff168173ffffffffffffffffffffffffffffffffffffffff167f8be0079c531659141344cd1fd0a4f28419497f9722a3daafe3b4186f6b6457e060405160405180910390a35050565b600081519050919050565b7f4e487b7100000000000000000000000000000000000000000000000000000000600052604160045260246000fd5b7f4e487b7100000000000000000000000000000000000000000000000000000000600052602260045260246000fd5b600060028204905060018216806200023557607f821691505b6020821081036200024b576200024a620001ed565b5b50919050565b60008190508160005260206000209050919050565b60006020601f8301049050919050565b600082821b905092915050565b600060088302620002b57fffffffffffffffffffffffffffffffffffffffffffffffffffffffffffffffff8262000276565b620002c1868362000276565b95508019841693508086168417925050509392505050565b6000819050919050565b6000819050919050565b60006200030e620003086200030284620002d9565b620002e3565b620002d9565b9050919050565b6000819050919050565b6200032a83620002ed565b62000342620003398262000315565b84845462000283565b825550505050565b600090565b620003596200034a565b620003668184846200031f565b505050565b5b818110156200038e57620003826000826200034f565b6001810190506200036c565b5050565b601f821115620003dd57620003a78162000251565b620003b28462000266565b81016020851015620003c2578190505b620003da620003d18562000266565b8301826200036b565b50505b505050565b600082821c905092915050565b60006200040260001984600802620003e2565b1980831691505092915050565b60006200041d8383620003ef565b9150826002028217905092915050565b6200043882620001b3565b67ffffffffffffffff811115620004545762000453620001be565b5b6200046082546200021c565b6200046d82828562000392565b600060209050601f831160018114620004a5576000841562000490578287015190505b6200049c85826200040f565b8655506200050c565b601f198416620004b58662000251565b60005b82811015620004df57848901518255600182019150602085019450602081019050620004b8565b86831015620004ff5784890151620004fb601f891682620003ef565b8355505b6001600288020188555050505b505050505050565b613e1180620005246000396000f3fe608060405234801561001057600080fd5b506004361061018e5760003560e01c806370a08231116100de578063b88d4fde11610097578063d51fe9cb11610071578063d51fe9cb1461045b578063e985e9c51461048b578063ef463b64146104bb578063f2fde38b146104eb5761018e565b8063b88d4fde146103f3578063c87b56dd1461040f578063d204c45e1461043f5761018e565b806370a0823114610357578063715018a6146103875780638456cb59146103915780638da5cb5b1461039b57806395d89b41146103b9578063a22cb465146103d75761018e565b80632f745c591161014b57806347fcf0181161012557806347fcf018146102bd5780634f6ccce7146102d95780635c975abb146103095780636352211e146103275761018e565b80632f745c59146102675780633f4ba83a1461029757806342842e0e146102a15761018e565b806301ffc9a71461019357806306fdde03146101c3578063081812fc146101e1578063095ea7b31461021157806318160ddd1461022d57806323b872dd1461024b575b600080fd5b6101ad60048036038101906101a891906127fb565b610507565b6040516101ba9190612843565b60405180910390f35b6101cb610519565b6040516101d891906128ee565b60405180910390f35b6101fb60048036038101906101f69190612946565b6105ab565b60405161020891906129b4565b60405180910390f35b61022b600480360381019061022691906129fb565b6105f1565b005b610235610708565b6040516102429190612a4a565b60405180910390f35b61026560048036038101906102609190612a65565b610715565b005b610281600480360381019061027c91906129fb565b610775565b60405161028e9190612a4a565b60405180910390f35b61029f61081a565b005b6102bb60048036038101906102b69190612a65565b61082c565b005b6102d760048036038101906102d291906129fb565b61084c565b005b6102f360048036038101906102ee9190612946565b610938565b6040516103009190612a4a565b60405180910390f35b6103116109a9565b60405161031e9190612843565b60405180910390f35b610341600480360381019061033c9190612946565b6109c0565b60405161034e91906129b4565b60405180910390f35b610371600480360381019061036c9190612ab8565b610a71565b60405161037e9190612a4a565b60405180910390f35b61038f610b28565b005b610399610b3c565b005b6103a3610b4e565b6040516103b091906129b4565b60405180910390f35b6103c1610b78565b6040516103ce91906128ee565b60405180910390f35b6103f160048036038101906103ec9190612b11565b610c0a565b005b61040d60048036038101906104089190612c86565b610c20565b005b61042960048036038101906104249190612946565b610c82565b60405161043691906128ee565b60405180910390f35b61045960048036038101906104549190612daa565b610c94565b005b61047560048036038101906104709190612946565b610dae565b60405161048291906129b4565b60405180910390f35b6104a560048036038101906104a09190612e06565b610de1565b6040516104b29190612843565b60405180910390f35b6104d560048036038101906104d091906129fb565b610e75565b6040516104e291906129b4565b60405180910390f35b61050560048036038101906105009190612ab8565b610eb7565b005b600061051282610f3a565b9050919050565b60606000805461052890612e75565b80601f016020809104026020016040519081016040528092919081815260200182805461055490612e75565b80156105a15780601f10610576576101008083540402835291602001916105a1565b820191906000526020600020905b81548152906001019060200180831161058457829003601f168201915b5050505050905090565b60006105b682610fb4565b6004600083815260200190815260200160002060009054906101000a900473ffffffffffffffffffffffffffffffffffffffff169050919050565b60006105fc826109c0565b90508073ffffffffffffffffffffffffffffffffffffffff168373ffffffffffffffffffffffffffffffffffffffff160361066c576040517f08c379a000000000000000000000000000000000000000000000000000000000815260040161066390612f18565b60405180910390fd5b8073ffffffffffffffffffffffffffffffffffffffff1661068b610fff565b73ffffffffffffffffffffffffffffffffffffffff1614806106ba57506106b9816106b4610fff565b610de1565b5b6106f9576040517f08c379a00000000000000000000000000000000000000000000000000000000081526004016106f090612faa565b60405180910390fd5b6107038383611007565b505050565b6000600880549050905090565b610726610720610fff565b826110c0565b610765576040517f08c379a000000000000000000000000000000000000000000000000000000000815260040161075c9061303c565b60405180910390fd5b610770838383611155565b505050565b600061078083610a71565b82106107c1576040517f08c379a00000000000000000000000000000000000000000000000000000000081526004016107b8906130ce565b60405180910390fd5b600660008473ffffffffffffffffffffffffffffffffffffffff1673ffffffffffffffffffffffffffffffffffffffff168152602001908152602001600020600083815260200190815260200160002054905092915050565b6108226113bb565b61082a611439565b565b61084783838360405180602001604052806000815250610c20565b505050565b6108546113bb565b8173ffffffffffffffffffffffffffffffffffffffff16600c600083815260200190815260200160002060009054906101000a900473ffffffffffffffffffffffffffffffffffffffff1673ffffffffffffffffffffffffffffffffffffffff16146108f5576040517f08c379a00000000000000000000000000000000000000000000000000000000081526004016108ec9061313a565b60405180910390fd5b6108fe8161149c565b600c600082815260200190815260200160002060006101000a81549073ffffffffffffffffffffffffffffffffffffffff02191690555050565b6000610942610708565b8210610983576040517f08c379a000000000000000000000000000000000000000000000000000000000815260040161097a906131cc565b60405180910390fd5b60088281548110610997576109966131ec565b5b90600052602060002001549050919050565b6000600b60009054906101000a900460ff16905090565b6000806002600084815260200190815260200160002060009054906101000a900473ffffffffffffffffffffffffffffffffffffffff169050600073ffffffffffffffffffffffffffffffffffffffff168173ffffffffffffffffffffffffffffffffffffffff1603610a68576040517f08c379a0000000000000000000000000000000000000000000000000000000008152600401610a5f90613267565b60405180910390fd5b80915050919050565b60008073ffffffffffffffffffffffffffffffffffffffff168273ffffffffffffffffffffffffffffffffffffffff1603610ae1576040517f08c379a0000000000000000000000000000000000000000000000000000000008152600401610ad8906132f9565b60405180910390fd5b600360008373ffffffffffffffffffffffffffffffffffffffff1673ffffffffffffffffffffffffffffffffffffffff168152602001908152602001600020549050919050565b610b306113bb565b610b3a60006114a8565b565b610b446113bb565b610b4c61156e565b565b6000600b60019054906101000a900473ffffffffffffffffffffffffffffffffffffffff16905090565b606060018054610b8790612e75565b80601f0160208091040260200160405190810160405280929190818152602001828054610bb390612e75565b8015610c005780601f10610bd557610100808354040283529160200191610c00565b820191906000526020600020905b815481529060010190602001808311610be357829003601f168201915b5050505050905090565b610c1c610c15610fff565b83836115d1565b5050565b610c31610c2b610fff565b836110c0565b610c70576040517f08c379a0000000000000000000000000000000000000000000000000000000008152600401610c679061303c565b60405180910390fd5b610c7c8484848461173d565b50505050565b6060610c8d82611799565b9050919050565b610c9c6113bb565b6000610ca8600e6118ab565b9050610cb4600e6118b9565b610cbe83826118cf565b610cc881836118ed565b82600c600083815260200190815260200160002060006101000a81548173ffffffffffffffffffffffffffffffffffffffff021916908373ffffffffffffffffffffffffffffffffffffffff16021790555082600d60008573ffffffffffffffffffffffffffffffffffffffff1673ffffffffffffffffffffffffffffffffffffffff168152602001908152602001600020600083815260200190815260200160002060006101000a81548173ffffffffffffffffffffffffffffffffffffffff021916908373ffffffffffffffffffffffffffffffffffffffff160217905550505050565b600c6020528060005260406000206000915054906101000a900473ffffffffffffffffffffffffffffffffffffffff1681565b6000600560008473ffffffffffffffffffffffffffffffffffffffff1673ffffffffffffffffffffffffffffffffffffffff16815260200190815260200160002060008373ffffffffffffffffffffffffffffffffffffffff1673ffffffffffffffffffffffffffffffffffffffff16815260200190815260200160002060009054906101000a900460ff16905092915050565b600d6020528160005260406000206020528060005260406000206000915091509054906101000a900473ffffffffffffffffffffffffffffffffffffffff1681565b610ebf6113bb565b600073ffffffffffffffffffffffffffffffffffffffff168173ffffffffffffffffffffffffffffffffffffffff1603610f2e576040517f08c379a0000000000000000000000000000000000000000000000000000000008152600401610f259061338b565b60405180910390fd5b610f37816114a8565b50565b60007f780e9d63000000000000000000000000000000000000000000000000000000007bffffffffffffffffffffffffffffffffffffffffffffffffffffffff1916827bffffffffffffffffffffffffffffffffffffffffffffffffffffffff19161480610fad5750610fac8261195a565b5b9050919050565b610fbd81611a3c565b610ffc576040517f08c379a0000000000000000000000000000000000000000000000000000000008152600401610ff390613267565b60405180910390fd5b50565b600033905090565b816004600083815260200190815260200160002060006101000a81548173ffffffffffffffffffffffffffffffffffffffff021916908373ffffffffffffffffffffffffffffffffffffffff160217905550808273ffffffffffffffffffffffffffffffffffffffff1661107a836109c0565b73ffffffffffffffffffffffffffffffffffffffff167f8c5be1e5ebec7d5bd14f71427d1e84f3dd0314c0f7b2291e5b200ac8c7c3b92560405160405180910390a45050565b6000806110cc836109c0565b90508073ffffffffffffffffffffffffffffffffffffffff168473ffffffffffffffffffffffffffffffffffffffff16148061110e575061110d8185610de1565b5b8061114c57508373ffffffffffffffffffffffffffffffffffffffff16611134846105ab565b73ffffffffffffffffffffffffffffffffffffffff16145b91505092915050565b8273ffffffffffffffffffffffffffffffffffffffff16611175826109c0565b73ffffffffffffffffffffffffffffffffffffffff16146111cb576040517f08c379a00000000000000000000000000000000000000000000000000000000081526004016111c29061341d565b60405180910390fd5b600073ffffffffffffffffffffffffffffffffffffffff168273ffffffffffffffffffffffffffffffffffffffff160361123a576040517f08c379a0000000000000000000000000000000000000000000000000000000008152600401611231906134af565b60405180910390fd5b611245838383611aa8565b611250600082611007565b6001600360008573ffffffffffffffffffffffffffffffffffffffff1673ffffffffffffffffffffffffffffffffffffffff16815260200190815260200160002060008282546112a091906134fe565b925050819055506001600360008473ffffffffffffffffffffffffffffffffffffffff1673ffffffffffffffffffffffffffffffffffffffff16815260200190815260200160002060008282546112f79190613532565b92505081905550816002600083815260200190815260200160002060006101000a81548173ffffffffffffffffffffffffffffffffffffffff021916908373ffffffffffffffffffffffffffffffffffffffff160217905550808273ffffffffffffffffffffffffffffffffffffffff168473ffffffffffffffffffffffffffffffffffffffff167fddf252ad1be2c89b69c2b068fc378daa952ba7f163c4a11628f55a4df523b3ef60405160405180910390a46113b6838383611ac0565b505050565b6113c3610fff565b73ffffffffffffffffffffffffffffffffffffffff166113e1610b4e565b73ffffffffffffffffffffffffffffffffffffffff1614611437576040517f08c379a000000000000000000000000000000000000000000000000000000000815260040161142e906135b2565b60405180910390fd5b565b611441611ac5565b6000600b60006101000a81548160ff0219169083151502179055507f5db9ee0a495bf2e6ff9c91a7834c1ba4fdd244a5e8aa4e537bd38aeae4b073aa611485610fff565b60405161149291906129b4565b60405180910390a1565b6114a581611b0e565b50565b6000600b60019054906101000a900473ffffffffffffffffffffffffffffffffffffffff16905081600b60016101000a81548173ffffffffffffffffffffffffffffffffffffffff021916908373ffffffffffffffffffffffffffffffffffffffff1602179055508173ffffffffffffffffffffffffffffffffffffffff168173ffffffffffffffffffffffffffffffffffffffff167f8be0079c531659141344cd1fd0a4f28419497f9722a3daafe3b4186f6b6457e060405160405180910390a35050565b611576611b61565b6001600b60006101000a81548160ff0219169083151502179055507f62e78cea01bee320cd4e420270b5ea74000d11b0c9f74754ebdbfc544b05a2586115ba610fff565b6040516115c791906129b4565b60405180910390a1565b8173ffffffffffffffffffffffffffffffffffffffff168373ffffffffffffffffffffffffffffffffffffffff160361163f576040517f08c379a00000000000000000000000000000000000000000000000000000000081526004016116369061361e565b60405180910390fd5b80600560008573ffffffffffffffffffffffffffffffffffffffff1673ffffffffffffffffffffffffffffffffffffffff16815260200190815260200160002060008473ffffffffffffffffffffffffffffffffffffffff1673ffffffffffffffffffffffffffffffffffffffff16815260200190815260200160002060006101000a81548160ff0219169083151502179055508173ffffffffffffffffffffffffffffffffffffffff168373ffffffffffffffffffffffffffffffffffffffff167f17307eab39ab6107e8899845ad3d59bd9653f200f220920489ca2b5937696c31836040516117309190612843565b60405180910390a3505050565b611748848484611155565b61175484848484611bab565b611793576040517f08c379a000000000000000000000000000000000000000000000000000000000815260040161178a906136b0565b60405180910390fd5b50505050565b60606117a482610fb4565b6000600a600084815260200190815260200160002080546117c490612e75565b80601f01602080910402602001604051908101604052809291908181526020018280546117f090612e75565b801561183d5780601f106118125761010080835404028352916020019161183d565b820191906000526020600020905b81548152906001019060200180831161182057829003601f168201915b50505050509050600061184e611d32565b905060008151036118635781925050506118a6565b60008251111561189857808260405160200161188092919061370c565b604051602081830303815290604052925050506118a6565b6118a184611d6f565b925050505b919050565b600081600001549050919050565b6001816000016000828254019250508190555050565b6118e9828260405180602001604052806000815250611dd7565b5050565b6118f682611a3c565b611935576040517f08c379a000000000000000000000000000000000000000000000000000000000815260040161192c906137a2565b60405180910390fd5b80600a60008481526020019081526020016000209081611955919061396e565b505050565b60007f80ac58cd000000000000000000000000000000000000000000000000000000007bffffffffffffffffffffffffffffffffffffffffffffffffffffffff1916827bffffffffffffffffffffffffffffffffffffffffffffffffffffffff19161480611a2557507f5b5e139f000000000000000000000000000000000000000000000000000000007bffffffffffffffffffffffffffffffffffffffffffffffffffffffff1916827bffffffffffffffffffffffffffffffffffffffffffffffffffffffff1916145b80611a355750611a3482611e32565b5b9050919050565b60008073ffffffffffffffffffffffffffffffffffffffff166002600084815260200190815260200160002060009054906101000a900473ffffffffffffffffffffffffffffffffffffffff1673ffffffffffffffffffffffffffffffffffffffff1614159050919050565b611ab0611b61565b611abb838383611e9c565b505050565b505050565b611acd6109a9565b611b0c576040517f08c379a0000000000000000000000000000000000000000000000000000000008152600401611b0390613a8c565b60405180910390fd5b565b611b1781611fae565b6000600a60008381526020019081526020016000208054611b3790612e75565b905014611b5e57600a60008281526020019081526020016000206000611b5d9190612732565b5b50565b611b696109a9565b15611ba9576040517f08c379a0000000000000000000000000000000000000000000000000000000008152600401611ba090613af8565b60405180910390fd5b565b6000611bcc8473ffffffffffffffffffffffffffffffffffffffff166120cb565b15611d25578373ffffffffffffffffffffffffffffffffffffffff1663150b7a02611bf5610fff565b8786866040518563ffffffff1660e01b8152600401611c179493929190613b6d565b6020604051808303816000875af1925050508015611c5357506040513d601f19601f82011682018060405250810190611c509190613bce565b60015b611cd5573d8060008114611c83576040519150601f19603f3d011682016040523d82523d6000602084013e611c88565b606091505b506000815103611ccd576040517f08c379a0000000000000000000000000000000000000000000000000000000008152600401611cc4906136b0565b60405180910390fd5b805181602001fd5b63150b7a0260e01b7bffffffffffffffffffffffffffffffffffffffffffffffffffffffff1916817bffffffffffffffffffffffffffffffffffffffffffffffffffffffff191614915050611d2a565b600190505b949350505050565b60606040518060400160405280601281526020017f697066733a2f2f426c6f636b506f7461746f0000000000000000000000000000815250905090565b6060611d7a82610fb4565b6000611d84611d32565b90506000815111611da45760405180602001604052806000815250611dcf565b80611dae846120ee565b604051602001611dbf92919061370c565b6040516020818303038152906040525b915050919050565b611de1838361224e565b611dee6000848484611bab565b611e2d576040517f08c379a0000000000000000000000000000000000000000000000000000000008152600401611e24906136b0565b60405180910390fd5b505050565b60007f01ffc9a7000000000000000000000000000000000000000000000000000000007bffffffffffffffffffffffffffffffffffffffffffffffffffffffff1916827bffffffffffffffffffffffffffffffffffffffffffffffffffffffff1916149050919050565b611ea7838383612427565b600073ffffffffffffffffffffffffffffffffffffffff168373ffffffffffffffffffffffffffffffffffffffff1603611ee957611ee48161242c565b611f28565b8173ffffffffffffffffffffffffffffffffffffffff168373ffffffffffffffffffffffffffffffffffffffff1614611f2757611f268382612475565b5b5b600073ffffffffffffffffffffffffffffffffffffffff168273ffffffffffffffffffffffffffffffffffffffff1603611f6a57611f65816125e2565b611fa9565b8273ffffffffffffffffffffffffffffffffffffffff168273ffffffffffffffffffffffffffffffffffffffff1614611fa857611fa782826126b3565b5b5b505050565b6000611fb9826109c0565b9050611fc781600084611aa8565b611fd2600083611007565b6001600360008373ffffffffffffffffffffffffffffffffffffffff1673ffffffffffffffffffffffffffffffffffffffff168152602001908152602001600020600082825461202291906134fe565b925050819055506002600083815260200190815260200160002060006101000a81549073ffffffffffffffffffffffffffffffffffffffff021916905581600073ffffffffffffffffffffffffffffffffffffffff168273ffffffffffffffffffffffffffffffffffffffff167fddf252ad1be2c89b69c2b068fc378daa952ba7f163c4a11628f55a4df523b3ef60405160405180910390a46120c781600084611ac0565b5050565b6000808273ffffffffffffffffffffffffffffffffffffffff163b119050919050565b606060008203612135576040518060400160405280600181526020017f30000000000000000000000000000000000000000000000000000000000000008152509050612249565b600082905060005b6000821461216757808061215090613bfb565b915050600a826121609190613c72565b915061213d565b60008167ffffffffffffffff81111561218357612182612b5b565b5b6040519080825280601f01601f1916602001820160405280156121b55781602001600182028036833780820191505090505b5090505b60008514612242576001826121ce91906134fe565b9150600a856121dd9190613ca3565b60306121e99190613532565b60f81b8183815181106121ff576121fe6131ec565b5b60200101907effffffffffffffffffffffffffffffffffffffffffffffffffffffffffffff1916908160001a905350600a8561223b9190613c72565b94506121b9565b8093505050505b919050565b600073ffffffffffffffffffffffffffffffffffffffff168273ffffffffffffffffffffffffffffffffffffffff16036122bd576040517f08c379a00000000000000000000000000000000000000000000000000000000081526004016122b490613d20565b60405180910390fd5b6122c681611a3c565b15612306576040517f08c379a00000000000000000000000000000000000000000000000000000000081526004016122fd90613d8c565b60405180910390fd5b61231260008383611aa8565b6001600360008473ffffffffffffffffffffffffffffffffffffffff1673ffffffffffffffffffffffffffffffffffffffff16815260200190815260200160002060008282546123629190613532565b92505081905550816002600083815260200190815260200160002060006101000a81548173ffffffffffffffffffffffffffffffffffffffff021916908373ffffffffffffffffffffffffffffffffffffffff160217905550808273ffffffffffffffffffffffffffffffffffffffff16600073ffffffffffffffffffffffffffffffffffffffff167fddf252ad1be2c89b69c2b068fc378daa952ba7f163c4a11628f55a4df523b3ef60405160405180910390a461242360008383611ac0565b5050565b505050565b6008805490506009600083815260200190815260200160002081905550600881908060018154018082558091505060019003906000526020600020016000909190919091505550565b6000600161248284610a71565b61248c91906134fe565b9050600060076000848152602001908152602001600020549050818114612571576000600660008673ffffffffffffffffffffffffffffffffffffffff1673ffffffffffffffffffffffffffffffffffffffff168152602001908152602001600020600084815260200190815260200160002054905080600660008773ffffffffffffffffffffffffffffffffffffffff1673ffffffffffffffffffffffffffffffffffffffff168152602001908152602001600020600084815260200190815260200160002081905550816007600083815260200190815260200160002081905550505b6007600084815260200190815260200160002060009055600660008573ffffffffffffffffffffffffffffffffffffffff1673ffffffffffffffffffffffffffffffffffffffff16815260200190815260200160002060008381526020019081526020016000206000905550505050565b600060016008805490506125f691906134fe565b9050600060096000848152602001908152602001600020549050600060088381548110612626576126256131ec565b5b906000526020600020015490508060088381548110612648576126476131ec565b5b90600052602060002001819055508160096000838152602001908152602001600020819055506009600085815260200190815260200160002060009055600880548061269757612696613dac565b5b6001900381819060005260206000200160009055905550505050565b60006126be83610a71565b905081600660008573ffffffffffffffffffffffffffffffffffffffff1673ffffffffffffffffffffffffffffffffffffffff168152602001908152602001600020600083815260200190815260200160002081905550806007600084815260200190815260200160002081905550505050565b50805461273e90612e75565b6000825580601f10612750575061276f565b601f01602090049060005260206000209081019061276e9190612772565b5b50565b5b8082111561278b576000816000905550600101612773565b5090565b6000604051905090565b600080fd5b600080fd5b60007fffffffff0000000000000000000000000000000000000000000000000000000082169050919050565b6127d8816127a3565b81146127e357600080fd5b50565b6000813590506127f5816127cf565b92915050565b60006020828403121561281157612810612799565b5b600061281f848285016127e6565b91505092915050565b60008115159050919050565b61283d81612828565b82525050565b60006020820190506128586000830184612834565b92915050565b600081519050919050565b600082825260208201905092915050565b60005b8381101561289857808201518184015260208101905061287d565b60008484015250505050565b6000601f19601f8301169050919050565b60006128c08261285e565b6128ca8185612869565b93506128da81856020860161287a565b6128e3816128a4565b840191505092915050565b6000602082019050818103600083015261290881846128b5565b905092915050565b6000819050919050565b61292381612910565b811461292e57600080fd5b50565b6000813590506129408161291a565b92915050565b60006020828403121561295c5761295b612799565b5b600061296a84828501612931565b91505092915050565b600073ffffffffffffffffffffffffffffffffffffffff82169050919050565b600061299e82612973565b9050919050565b6129ae81612993565b82525050565b60006020820190506129c960008301846129a5565b92915050565b6129d881612993565b81146129e357600080fd5b50565b6000813590506129f5816129cf565b92915050565b60008060408385031215612a1257612a11612799565b5b6000612a20858286016129e6565b9250506020612a3185828601612931565b9150509250929050565b612a4481612910565b82525050565b6000602082019050612a5f6000830184612a3b565b92915050565b600080600060608486031215612a7e57612a7d612799565b5b6000612a8c868287016129e6565b9350506020612a9d868287016129e6565b9250506040612aae86828701612931565b9150509250925092565b600060208284031215612ace57612acd612799565b5b6000612adc848285016129e6565b91505092915050565b612aee81612828565b8114612af957600080fd5b50565b600081359050612b0b81612ae5565b92915050565b60008060408385031215612b2857612b27612799565b5b6000612b36858286016129e6565b9250506020612b4785828601612afc565b9150509250929050565b600080fd5b600080fd5b7f4e487b7100000000000000000000000000000000000000000000000000000000600052604160045260246000fd5b612b93826128a4565b810181811067ffffffffffffffff82111715612bb257612bb1612b5b565b5b80604052505050565b6000612bc561278f565b9050612bd18282612b8a565b919050565b600067ffffffffffffffff821115612bf157612bf0612b5b565b5b612bfa826128a4565b9050602081019050919050565b82818337600083830152505050565b6000612c29612c2484612bd6565b612bbb565b905082815260208101848484011115612c4557612c44612b56565b5b612c50848285612c07565b509392505050565b600082601f830112612c6d57612c6c612b51565b5b8135612c7d848260208601612c16565b91505092915050565b60008060008060808587031215612ca057612c9f612799565b5b6000612cae878288016129e6565b9450506020612cbf878288016129e6565b9350506040612cd087828801612931565b925050606085013567ffffffffffffffff811115612cf157612cf061279e565b5b612cfd87828801612c58565b91505092959194509250565b600067ffffffffffffffff821115612d2457612d23612b5b565b5b612d2d826128a4565b9050602081019050919050565b6000612d4d612d4884612d09565b612bbb565b905082815260208101848484011115612d6957612d68612b56565b5b612d74848285612c07565b509392505050565b600082601f830112612d9157612d90612b51565b5b8135612da1848260208601612d3a565b91505092915050565b60008060408385031215612dc157612dc0612799565b5b6000612dcf858286016129e6565b925050602083013567ffffffffffffffff811115612df057612def61279e565b5b612dfc85828601612d7c565b9150509250929050565b60008060408385031215612e1d57612e1c612799565b5b6000612e2b858286016129e6565b9250506020612e3c858286016129e6565b9150509250929050565b7f4e487b7100000000000000000000000000000000000000000000000000000000600052602260045260246000fd5b60006002820490506001821680612e8d57607f821691505b602082108103612ea057612e9f612e46565b5b50919050565b7f4552433732313a20617070726f76616c20746f2063757272656e74206f776e6560008201527f7200000000000000000000000000000000000000000000000000000000000000602082015250565b6000612f02602183612869565b9150612f0d82612ea6565b604082019050919050565b60006020820190508181036000830152612f3181612ef5565b9050919050565b7f4552433732313a20617070726f76652063616c6c6572206973206e6f7420746f60008201527f6b656e206f776e6572206e6f7220617070726f76656420666f7220616c6c0000602082015250565b6000612f94603e83612869565b9150612f9f82612f38565b604082019050919050565b60006020820190508181036000830152612fc381612f87565b9050919050565b7f4552433732313a2063616c6c6572206973206e6f7420746f6b656e206f776e6560008201527f72206e6f7220617070726f766564000000000000000000000000000000000000602082015250565b6000613026602e83612869565b915061303182612fca565b604082019050919050565b6000602082019050818103600083015261305581613019565b9050919050565b7f455243373231456e756d657261626c653a206f776e657220696e646578206f7560008201527f74206f6620626f756e6473000000000000000000000000000000000000000000602082015250565b60006130b8602b83612869565b91506130c38261305c565b604082019050919050565b600060208201905081810360008301526130e7816130ab565b9050919050565b7f596f752063616e6e6f74206275726e2074686973204e46540000000000000000600082015250565b6000613124601883612869565b915061312f826130ee565b602082019050919050565b6000602082019050818103600083015261315381613117565b9050919050565b7f455243373231456e756d657261626c653a20676c6f62616c20696e646578206f60008201527f7574206f6620626f756e64730000000000000000000000000000000000000000602082015250565b60006131b6602c83612869565b91506131c18261315a565b604082019050919050565b600060208201905081810360008301526131e5816131a9565b9050919050565b7f4e487b7100000000000000000000000000000000000000000000000000000000600052603260045260246000fd5b7f4552433732313a20696e76616c696420746f6b656e2049440000000000000000600082015250565b6000613251601883612869565b915061325c8261321b565b602082019050919050565b6000602082019050818103600083015261328081613244565b9050919050565b7f4552433732313a2061646472657373207a65726f206973206e6f74206120766160008201527f6c6964206f776e65720000000000000000000000000000000000000000000000602082015250565b60006132e3602983612869565b91506132ee82613287565b604082019050919050565b60006020820190508181036000830152613312816132d6565b9050919050565b7f4f776e61626c653a206e6577206f776e657220697320746865207a65726f206160008201527f6464726573730000000000000000000000000000000000000000000000000000602082015250565b6000613375602683612869565b915061338082613319565b604082019050919050565b600060208201905081810360008301526133a481613368565b9050919050565b7f4552433732313a207472616e736665722066726f6d20696e636f72726563742060008201527f6f776e6572000000000000000000000000000000000000000000000000000000602082015250565b6000613407602583612869565b9150613412826133ab565b604082019050919050565b60006020820190508181036000830152613436816133fa565b9050919050565b7f4552433732313a207472616e7366657220746f20746865207a65726f2061646460008201527f7265737300000000000000000000000000000000000000000000000000000000602082015250565b6000613499602483612869565b91506134a48261343d565b604082019050919050565b600060208201905081810360008301526134c88161348c565b9050919050565b7f4e487b7100000000000000000000000000000000000000000000000000000000600052601160045260246000fd5b600061350982612910565b915061351483612910565b925082820390508181111561352c5761352b6134cf565b5b92915050565b600061353d82612910565b915061354883612910565b92508282019050808211156135605761355f6134cf565b5b92915050565b7f4f776e61626c653a2063616c6c6572206973206e6f7420746865206f776e6572600082015250565b600061359c602083612869565b91506135a782613566565b602082019050919050565b600060208201905081810360008301526135cb8161358f565b9050919050565b7f4552433732313a20617070726f766520746f2063616c6c657200000000000000600082015250565b6000613608601983612869565b9150613613826135d2565b602082019050919050565b60006020820190508181036000830152613637816135fb565b9050919050565b7f4552433732313a207472616e7366657220746f206e6f6e20455243373231526560008201527f63656976657220696d706c656d656e7465720000000000000000000000000000602082015250565b600061369a603283612869565b91506136a58261363e565b604082019050919050565b600060208201905081810360008301526136c98161368d565b9050919050565b600081905092915050565b60006136e68261285e565b6136f081856136d0565b935061370081856020860161287a565b80840191505092915050565b600061371882856136db565b915061372482846136db565b91508190509392505050565b7f45524337323155524953746f726167653a2055524920736574206f66206e6f6e60008201527f6578697374656e7420746f6b656e000000000000000000000000000000000000602082015250565b600061378c602e83612869565b915061379782613730565b604082019050919050565b600060208201905081810360008301526137bb8161377f565b9050919050565b60008190508160005260206000209050919050565b60006020601f8301049050919050565b600082821b905092915050565b6000600883026138247fffffffffffffffffffffffffffffffffffffffffffffffffffffffffffffffff826137e7565b61382e86836137e7565b95508019841693508086168417925050509392505050565b6000819050919050565b600061386b61386661386184612910565b613846565b612910565b9050919050565b6000819050919050565b61388583613850565b61389961389182613872565b8484546137f4565b825550505050565b600090565b6138ae6138a1565b6138b981848461387c565b505050565b5b818110156138dd576138d26000826138a6565b6001810190506138bf565b5050565b601f821115613922576138f3816137c2565b6138fc846137d7565b8101602085101561390b578190505b61391f613917856137d7565b8301826138be565b50505b505050565b600082821c905092915050565b600061394560001984600802613927565b1980831691505092915050565b600061395e8383613934565b9150826002028217905092915050565b6139778261285e565b67ffffffffffffffff8111156139905761398f612b5b565b5b61399a8254612e75565b6139a58282856138e1565b600060209050601f8311600181146139d857600084156139c6578287015190505b6139d08582613952565b865550613a38565b601f1984166139e6866137c2565b60005b82811015613a0e578489015182556001820191506020850194506020810190506139e9565b86831015613a2b5784890151613a27601f891682613934565b8355505b6001600288020188555050505b505050505050565b7f5061757361626c653a206e6f7420706175736564000000000000000000000000600082015250565b6000613a76601483612869565b9150613a8182613a40565b602082019050919050565b60006020820190508181036000830152613aa581613a69565b9050919050565b7f5061757361626c653a2070617573656400000000000000000000000000000000600082015250565b6000613ae2601083612869565b9150613aed82613aac565b602082019050919050565b60006020820190508181036000830152613b1181613ad5565b9050919050565b600081519050919050565b600082825260208201905092915050565b6000613b3f82613b18565b613b498185613b23565b9350613b5981856020860161287a565b613b62816128a4565b840191505092915050565b6000608082019050613b8260008301876129a5565b613b8f60208301866129a5565b613b9c6040830185612a3b565b8181036060830152613bae8184613b34565b905095945050505050565b600081519050613bc8816127cf565b92915050565b600060208284031215613be457613be3612799565b5b6000613bf284828501613bb9565b91505092915050565b6000613c0682612910565b91507fffffffffffffffffffffffffffffffffffffffffffffffffffffffffffffffff8203613c3857613c376134cf565b5b600182019050919050565b7f4e487b7100000000000000000000000000000000000000000000000000000000600052601260045260246000fd5b6000613c7d82612910565b9150613c8883612910565b925082613c9857613c97613c43565b5b828204905092915050565b6000613cae82612910565b9150613cb983612910565b925082613cc957613cc8613c43565b5b828206905092915050565b7f4552433732313a206d696e7420746f20746865207a65726f2061646472657373600082015250565b6000613d0a602083612869565b9150613d1582613cd4565b602082019050919050565b60006020820190508181036000830152613d3981613cfd565b9050919050565b7f4552433732313a20746f6b656e20616c7265616479206d696e74656400000000600082015250565b6000613d76601c83612869565b9150613d8182613d40565b602082019050919050565b60006020820190508181036000830152613da581613d69565b9050919050565b7f4e487b7100000000000000000000000000000000000000000000000000000000600052603160045260246000fdfea264697066735822122086b0ca4376ffeade85380e716f4da623052f06e0f1accfd456a2f6c85abf416864736f6c63430008110033",
  "linkReferences": {},
  "deployedLinkReferences": {}
}